:100000000C9439040C9456040C9456040C940C1162
:100010000C940C110C940C110C9421110C9456049A
:100020000C9456040C9456040C9456040C94B42A64
:100030000C9456040C9456040C9456040C945604D8
:100040000C94B02D0C9456040C9448260C940A265B
:100050000C9456040C9456040C9456040C945604B8
:100060000C9456040C945604B6079E0F9E0FC007BE
:10007000CD07DA07E7079E0FEB079E0FF9079E0FE4
:1000800003080D083E089E0F9E0F9E0F17082408B8
:100090003108620E730E920E730E960EA90E9C0E10
:1000A000A20EBE0EC40ED30EEA0E0E0F180F240FB2
:1000B0002E0F49214C215121542157215A215D21D4
:1000C00060216321662169217521752175217521C2
:1000D00075217521752175216F216C217221BC213B
:1000E000BF21C221C521C821CB21CE21D121CA28BF
:1000F000D028D328D628DB28E328ED2859295929E8
:100100005929F528F82801290A295929592959294D
:1001100059295929592912291C29282930293329D3
:100120003C2945294B2914371B37223729373037CB
:1001300037373E3747374E3755375E3765370F38D5
:100140000F3877370F380F386E37084AD73B3BCE1A
:10015000016E84BCBFFDC12F3D6C74319ABD5683C6
:100160003DDA3D00C77F11BED9E4BB4C3E916BAA7E
:10017000AABE000000803F05A84CCDB2D44EB938CD
:1001800036A9020C50B9918688083CA6AAAA2ABEB4
:10019000000000803F003E0D0A002C4C696D3A00C3
:1001A0002C52583A002C4275663A002C002C5750BD
:1001B0006F733A002C002C4D506F733A003C446F23
:1001C0006F72003C436865636B003C416C61726D0B
:1001D000003C486F6D65003C486F6C64003C527594
:1001E0006E003C49646C65005D0D0A005B76312E43
:1001F000302E396A2E32303136303631363A000DF3
:100200000A003D00244E005D0D0A002046002054E7
:1002100000204D3800204D3900204D3500204D3450
:1002200000204D3300204D3200204D3100204D3054
:100230000020473934002047393300204739310046
:10024000204739300020473230002047323100202B
:1002500047313900204731380020473137002047E7
:10026000004733382E00473830004733004732000C
:100270004731004730005B005D0D0A005B544C4F76
:100280003A005D0D0A002C005B4739323A005D0DE3
:100290000A002C003A003330003238005B47005D22
:1002A0000D0A003A002C005B5052423A00290D0A18
:1002B00000206D61782074726176656C2C206D6D04
:1002C0000020616363656C2C206D6D2F7365635E28
:1002D0003200206D617820726174652C206D6D2F65
:1002E0006D696E002C20737465702F6D6D007A003F
:1002F000790078002028003D0024002028686F6DD8
:10030000696E672070756C6C2D6F66662C206D6D44
:10031000290D0A002028686F6D696E672064656288
:100320006F756E63652C206D736563290D0A243229
:10033000373D002028686F6D696E67207365656BB7
:100340002C206D6D2F6D696E290D0A2432363D000B
:100350002028686F6D696E6720666565642C206D66
:100360006D2F6D696E290D0A2432353D00290D0A65
:100370002432343D002028686F6D696E67206469FF
:100380007220696E76657274206D61736B3A00201D
:1003900028686F6D696E67206379636C652C2062D5
:1003A0006F6F6C290D0A2432333D0020286861727A
:1003B00064206C696D6974732C20626F6F6C290DF9
:1003C0000A2432323D002028736F6674206C696DF8
:1003D0006974732C20626F6F6C290D0A2432313DD1
:1003E0000020287265706F727420696E636865738F
:1003F0002C20626F6F6C290D0A2432303D002028BA
:1004000061726320746F6C6572616E63652C206D20
:100410006D290D0A2431333D0020286A756E6374FE
:10042000696F6E20646576696174696F6E2C206DEA
:100430006D290D0A2431323D00290D0A2431313D48
:10044000002028737461747573207265706F727404
:10045000206D61736B3A00202870726F62652070A6
:10046000696E20696E766572742C20626F6F6C29DC
:100470000D0A2431303D0020286C696D69742070AC
:10048000696E7320696E766572742C20626F6F6C72
:10049000290D0A24363D0020287374657020656E8E
:1004A00061626C6520696E766572742C20626F6F74
:1004B0006C290D0A24353D00290D0A24343D002005
:1004C0002864697220706F727420696E7665727428
:1004D000206D61736B3A00290D0A24333D002028FA
:1004E0007374657020706F727420696E76657274B3
:1004F000206D61736B3A0020287374657020696405
:100500006C652064656C61792C206D736563290DC1
:100510000A24323D002028737465702070756C7356
:10052000652C2075736563290D0A24313D00243044
:100530003D002424202876696577204772626C206C
:1005400073657474696E6773290D0A2423202876F5
:10055000696577202320706172616D6574657273BF
:10056000290D0A2447202876696577207061727307
:100570006572207374617465290D0A2449202876F8
:10058000696577206275696C6420696E666F290DF4
:100590000A244E2028766965772073746172747519
:1005A0007020626C6F636B73290D0A24783D76614D
:1005B0006C7565202873617665204772626C2073C4
:1005C000657474696E67290D0A244E783D6C696EF6
:1005D000652028736176652073746172747570206C
:1005E000626C6F636B290D0A24432028636865637E
:1005F0006B2067636F6465206D6F6465290D0A2445
:100600005820286B696C6C20616C61726D206C6F76
:10061000636B290D0A2448202872756E20686F6D5F
:10062000696E67206379636C65290D0A7E202863F3
:1006300079636C65207374617274290D0A21202816
:100640006665656420686F6C64290D0A3F20286325
:10065000757272656E7420737461747573290D0AF6
:100660006374726C2D7820287265736574204772EC
:10067000626C290D0A000D0A4772626C2076312ED9
:10068000302E396A205B27242720666F7220686528
:100690006C705D0D0A005D0D0A00526573746F7217
:1006A000696E672064656661756C74730050676D70
:1006B00020456E6400436865636B20446F6F720071
:1006C00044697361626C656400456E61626C656467
:1006D0000043617574696F6E3A20556E6C6F636B81
:1006E000656400272448277C2724582720746F201E
:1006F000756E6C6F636B00526573657420746F2048
:10070000636F6E74696E7565005B000D0A00486F5B
:100710006D696E67206661696C0050726F6265205A
:100720006661696C0041626F727420647572696EF3
:1007300067206379636C6500536F6674206C696D24
:1007400069740048617264206C696D697400414C81
:1007500041524D3A20000D0A00496E76616C696481
:100760002067636F64652049443A00556E6465668E
:10077000696E656420666565642072617465005504
:100780006E737570706F7274656420636F6D6D61E8
:100790006E64004D6F64616C2067726F75702076B7
:1007A000696F6C6174696F6E004C696E65206F765D
:1007B0006572666C6F7700486F6D696E67206E6F4B
:1007C0007420656E61626C656400416C61726D20BD
:1007D0006C6F636B004E6F742069646C65004545F7
:1007E00050524F4D2072656164206661696C2E2005
:1007F0005573696E672064656661756C7473005625
:10080000616C7565203C203320757365630053650A
:100810007474696E672064697361626C6564005604
:10082000616C7565203C203000496E76616C6964AE
:100830002073746174656D656E7400426164206E2E
:10084000756D62657220666F726D617400457870B7
:10085000656374656420636F6D6D616E64206C65A3
:1008600074746572006572726F723A20006F6B0D5E
:100870000A0011241FBECFEFD8E0DEBFCDBF11E0CC
:10088000A0E0B1E0E8E7FCE702C005900D92AE30D1
:10089000B107D9F727E0AEE0B1E001C01D92AF3853
:1008A000B207E1F70E9485130C943A3E0C940000C5
:1008B0008091010190E0FC01EE0FFF1FE552F94F1E
:1008C0000190F081E02D2081DC01AD5AB84F8C9170
:1008D00080958223808308958091010190E0FC013E
:1008E000EE0FFF1FE55DF84F0190F081E02D2081B4
:1008F000DC01AD5AB84F8C91282B20830C945804FE
:10090000823099F48091010190E0FC01EE0FFF1F0D
:10091000E552F94F0190F081E02D2081DC01AD5AC4
:10092000B84F8C91282B208308950C945804CF93B2
:10093000DF931F92CDB7DEB79091B105923049F0A9
:1009400089830E94222189810F90DF91CF910C949D
:1009500080040F90DF91CF910895F999FECF92BD59
:1009600081BD81E08FBB80B50895F894F999FECFE1
:1009700092BD81BD81E08FBB40B54627842F99276A
:1009800087FD9095262F30E082239323892B39F021
:100990006F3F19F060BD84E006C084E104C04423C9
:1009A00021F060BD84E28FBBF99A789408959F92FC
:1009B000AF92BF92CF92DF92EF92FF920F931F936D
:1009C000CF93DF938C017A016B01C40ED51EEB012E
:1009D000912C5C01A61AB70ACE018A0D9B1DCC157D
:1009E000DD0591F0911009C0692D772767FD70959D
:1009F000272F221F2227221F01C021E06991922E5A
:100A0000960E0E94B504E8CF692DC8018E0D9F1D7A
:100A1000DF91CF911F910F91FF90EF90DF90CF90DA
:100A2000BF90AF909F900C94B5049F92AF92BF92ED
:100A3000CF92DF92EF92FF920F931F93CF93DF93AA
:100A40008B017A016C01C40ED51EEC01912C5B0167
:100A5000A81AB90AC5018C0F9D1FCC15DD0591F0B0
:100A60000E94AD04911009C0292D332727FD309530
:100A7000232F221F2227221F01C021E0922E980E31
:100A80008993E8CFC8018E0D9F1D0E94AD0421E01F
:100A900030E0981611F020E030E0C901DF91CF91ED
:100AA0001F910F91FF90EF90DF90CF90BF90AF908C
:100AB0009F9008958FE3E8E3F5E0DF011D928A95AA
:100AC000E9F76BE575E080E00E942A28811103C0F8
:100AD00087E00C943321089563EB75E08FE495E093
:100AE0000C943E382F923F924F925F926F927F927A
:100AF0008F929F92AF92BF92CF92DF92EF92FF922E
:100B00000F931F93CF93DF93CDB7DEB7AC970FB69C
:100B1000F894DEBF0FBECDBF9EA38DA389E3E7E7A8
:100B2000F5E0DF011D928A95E9F78AE0E8E3F5E058
:100B3000A8E7B5E001900D928A95E1F71D8E212C72
:100B4000312CA12CB12C19A2512C18A2662463942B
:100B5000712C87E0982E8824839494E0492E8D8D03
:100B6000EDA1FEA1E80FF11DB081BE8FBB2309F4FA
:100B7000ACC29E8D91549A3110F00C94900F8F5FFF
:100B80008D8FAE01475E5F4FBE01635E7F4F8DA1CB
:100B90009EA10E944118882311F40C94920FC98CD5
:100BA000DA8CEB8CFC8CC701B6010E94A73D0E9439
:100BB0000F3B162F70E080E090E00E943D3B9B01D0
:100BC000AC01C701B6010E94C13920E030E048EC19
:100BD00052E40E94D93C0E943C3D0E940F3BBE8DD6
:100BE000B73421F0BD3409F442C1AEC1183209F462
:100BF00034C1E8F4143160F4113108F0D9C0143074
:100C000009F45CC008F490C01A30D9F10C949E0F1E
:100C10001C31B9F128F4163108F4F9C00C949E0F78
:100C20001E3179F1163209F47FC00C949E0F1D33EA
:100C300009F40DC1A8F4153309F463C040F41B3264
:100C400009F4EEC0113309F4EBC00C949E0F1C3371
:100C500010F00C949E0F165310937E0509E002C10C
:100C60001C3540F41A3508F0B2C0103509F49CC0A8
:100C70000C949E0F1C3529F01F3508F4BFC00C944E
:100C80009E0F6115710531F4E8A1E1110C94940FE8
:100C9000F1E0F8A31C31A9F048F4143079F01A30CF
:100CA00009F0DDC082E080937705D9C0153349F1A2
:100CB0001C3551F11E3109F0D2C012C08092770567
:100CC000CEC06115710541F06A30710511F00C94C8
:100CD0009E0F409277050AC023E02093770506C057
:100CE0006115710529F485E08093770500E0CFC098
:100CF0006A30710511F00C949E0F96E09093770581
:100D0000F5CF90927705ABC06115710549F06A3057
:100D1000710511F00C949E0FB9E0B0937705E6CF02
:100D2000A8E0A0937705E2CFE8A1E1110C94940F1D
:100D3000F2E0F8A3123089F028F4112359F01130B1
:100D400081F08FC0163281F0103571F1133009F047
:100D500088C007C01092780584C028A12093780528
:100D600080C0109378057DC06E317105A1F040F40C
:100D70006431710511F00C949E0F4092780512C0F9
:100D80006832710561F06233710511F00C949E0FA9
:100D90009092780507C085E08093780503C096E0BF
:100DA0009093780501E073C0A8E0A093780559C03E
:100DB000123129F0133131F010927C0506C0809277
:100DC0007C0503C082E080937C0502E04BC0611586
:100DD000710549F41A3519F410927B0502C080920E
:100DE0007B0503E054C06A30710511F00C949E0F2E
:100DF0001A3511F40C949E0F04E049C01D3519F406
:100E00008092790502C01092790505E02BC014315B
:100E100019F480927A0502C010927A0506E022C089
:100E2000B8A1B1110C94940F113331F410927D05D7
:100E300008E0E3E0E8A32BC06A30710511F00C94E0
:100E40009E0F80927D0508E0F3E0F8A320C0672B99
:100E500011F00C949E0F0AE01AC007E003C000E0F6
:100E600001C001E0672B99F087E10C94B10F672B6B
:100E7000D9F71630E0F4133008F443C0143009F405
:100E80004DC0153009F44EC0809281050CE0C301BD
:100E9000002E02C0880F991F0A94E2F79C012A21B4
:100EA0003B21232B09F44DC085E10C94B10F1E3179
:100EB00089F130F488EF810F8230B8F10C949E0FE5
:100EC000143611F00C949E0F1092B3051092B405D5
:100ED0001092B5051092B6051092B7051092B8059C
:100EE0001092B9051092BA051092BB051092BC057C
:100EF0001092BD051092BE050E948F1D0E9416180B
:100F0000C6CF123039F01E3129F0111118C080926D
:100F10007F0515C082E080937F0511C082E0809339
:100F20008105B4CF10928105B1CF193021F082E054
:100F30008093800502C0109280050DE0A8CF0BE0E1
:100F4000A6CFA82AB92A0BCE2E8D822F992787FDEE
:100F50009095A92FB92FFC01E654F109E531F1056F
:100F600008F0ECC7EC5CFF4F0C94F43DC092820596
:100F7000D0928305E0928405F092850500E07FC061
:100F8000C0928605D0928705E0928805F092890587
:100F900089A1816089A301E072C0C0928A05D092C4
:100FA0008B05E0928C05F0928D0599A1926099A332
:100FB00002E065C0C0928E05D0928F05E092900548
:100FC000F0929105A9A1A460A9A303E058C01093D1
:100FD000920504E054C0C701B6010E940A3B609329
:100FE000930570939405809395059093960505E07D
:100FF00046C0C0929705D0929805E0929905F0926C
:101000009A0506E03CC0C0929B05D0929C05E092F8
:101010009D05F0929E0507E032C0C0929F05D092D8
:10102000A005E092A105F092A20508E028C0C092B8
:10103000A405D092A505E092A605F092A705B52DCE
:10104000B1605B2E0AE01BC0C092A805D092A90532
:10105000E092AA05F092AB05E52DE2605E2E0BE072
:101060000EC0C092AC05D092AD05E092AE05F092F4
:10107000AF05F52DF4605F2E0CE001C009E0C3015F
:10108000002E02C0880F991F0A94E2F79F8F8E8F5F
:1010900082219321892B09F049C781E693E0002E34
:1010A00002C0959587950A94E2F780FF09C020E079
:1010B00030E0A901C701B6010E949B3A87FD38C7FD
:1010C000AE8DBF8D2A2A3B2A4ACD552029F0E8A1B2
:1010D000E11102C0F2E0F8A325FE0EC08091930555
:1010E00090919405A0919505B09196058038964908
:1010F000A849B1050CF01EC780917905813031F403
:1011000088A18230A1F520FE1FC731C0809139052A
:1011100081112DC020FE1BC080917A05813039F5E8
:1011200023E333E34BEC51E4609182057091830536
:1011300080918405909185050E94D93C6093820539
:1011400070938305809384059093850510C08091EA
:10115000460590914705A0914805B09149058093B7
:10116000820590938305A0938405B093850530FC98
:1011700010C08091420590914305A0914405B09123
:10118000450580939F059093A005A093A105B0937A
:10119000A20580917705813031F426FC02C08CE1F4
:1011A000E0C6E89426F880917C05882341F08130E0
:1011B00061F01AA6B2E0B9A7E1E0EDA30BC092E09E
:1011C0009AA7A1E0A9A71DA205C0F1E0FAA719A658
:1011D00022E02DA380917A05813021F088A183300F
:1011E00091F52AC0B4EAEB2EB5E0FB2E00E010E04A
:1011F000C52CD12CC601002E02C0959587950A9466
:10120000E2F780FF10C023E333E34BEC51E4D70156
:101210006D917D918D919C910E94D93CF7016083E5
:101220007183828393830F5F1F4FF4E0EF0EF11CF5
:1012300003301105F9F6D2CF80917D05813019F484
:1012400024E0521279C68CE0EBE5F5E0DE011D9654
:1012500001900D928A95E1F7B1FC09C08091770564
:101260008E8F8230B9F0883009F4B0C015C18091FA
:101270007E05873010F08DE174C690913E05981779
:1012800069F3BE01635F7F4F0E942A28882309F417
:1012900065C6E4CF511002C08AE163C6C101807502
:1012A0009927892B09F47BCF609197057091980558
:1012B0008091990590919A050E94A73D0E940F3B4D
:1012C0006730C8F680919205843129F0823009F0A8
:1012D00035C627FC33C69FEA2922662319F06150E0
:1012E0006E8F03C0A0917E05AE8FBE016F5F7F4FF2
:1012F0008E8D0E942A28882309F430C640909205DA
:1013000060907305709074058090750590907605D7
:10131000FE0131967F01F4EACF2EF5E0DF2EAFE437
:10132000AA2EA5E0BA2E00E010E0852D90E098A747
:101330008FA38FA198A5002E02C0959587950A943A
:10134000E2F780FF33C094E1491226C0D5015896D8
:101350002D913D914D915C915B976D917D918D911A
:101360009C910E94C139F6012081318142815381D3
:101370000E94C139D7016D937D938D939C931397F0
:101380000230A1F4A40193010E94C139F7016083E6
:101390007183828393830AC0F60180819181A28147
:1013A000B381F70180839183A283B3830F5F1F4FC3
:1013B000F4E0EF0EF11C24E0C20ED11C84E0A80E74
:1013C000B11C0330110509F0B4CF0FC1552009F449
:1013D00063CF609073057090740580907505909050
:1013E000760504EA15E0EFE4CE2EE5E0DE2E5E01A0
:1013F0009DE0A90EB11CE12CF12CA52DB0E0BF8F12
:10140000AE8F8E8D9F8D0E2C02C0959587950A9478
:10141000E2F780FF26C0F5012081318142815381AE
:10142000D6016D917D918D919C910E94C139F801F9
:1014300020813181428153810E94C139D8016D934D
:101440007D938D939C931397B2E0EB1214C0A4018B
:1014500093010E94C139F801608371838283938371
:101460000AC0F601808D918DA28DB38DF801808325
:101470009183A283B383FFEFEF1AFF0A0C5F1F4F24
:1014800024E0C20ED11C84E0A80EB11C93E0E91642
:10149000F10409F0B6CFA8C0A8A1A33059F4BE8DBD
:1014A000B53009F48FC0B73009F499C0B33009F0F2
:1014B0009BC080C0552099F340907B0580907305B8
:1014C00090907405A0907505B09076057FE4C72EC6
:1014D00075E0D72E04EA15E03E01EDE06E0E711CBA
:1014E000E12CF12C852D90E098A78FA38FA198A5D2
:1014F0000E2C02C0959587950A94E2F780FD0BC0EB
:10150000F60180819181A281B381F801808391836A
:10151000A283B3833EC0FE8DF730D9F1411028C0BD
:10152000D60158962D913D914D915C915B97F301B9
:1015300060817181828193810E94C239D8012D918D
:101540003D914D915C910E94C239F8016083718395
:1015500082839383F2E0EF121CC0A50194010E94E4
:10156000C239D8016D937D938D939C93139711C0CD
:10157000F6012081318142815381D8016D917D91A5
:101580008D919C910E94C239F8016083718382839E
:101590009383FFEFEF1AFF0A24E0C20ED11C0C5F09
:1015A0001F4F84E0680E711C93E0E916F10409F006
:1015B0009DCF75CF511001C018A2BE016F5F7F4F44
:1015C00086E007C0511001C018A2BE016F5F7F4FB7
:1015D00087E00E942A28882309F4C0C405C08091AE
:1015E0007805823008F0ACC41E8E10917805183052
:1015F00041F4552009F4B3C1A8A1A13009F0A2C457
:101600008BC2B8A1B23009F0AAC11123D9F020E0F1
:1016100030E0A90160918205709183058091840575
:10162000909185050E949B3A882309F48DC414305B
:1016300028F4123058F4113029F06EC2183008F432
:101640004DC16AC2511068C218A28CC1552009F45C
:1016500023CEFDA1EF2FF0E0F8A7EFA399A5892FE6
:1016600090E09CA78BA781E090E03C0109A402C018
:10167000660C771C0A94E2F70DA002C0880F991F30
:101680000A94E2F7682A792A852D90E0862197212D
:10169000892B09F45BC4CF01880F991F880F991F0C
:1016A000FC01E958FA4FDC01A85CBA4F57962D911E
:1016B0003D914D915C915A9765A576A587A590A916
:1016C0000E94C1396B017C018BA59CA5880F991FD5
:1016D000880F991FFC01E958FA4FDC01A85CBA4F4A
:1016E00057962D913D914D915C915A9765A576A5A0
:1016F00087A590A90E94C1394B015C0127FE40C01B
:10170000E89427F82091A4053091A5054091A605FD
:101710005091A70560914F0570915005809151053A
:10172000909152050E949B3A811120C12091A805F9
:101730003091A9054091AA055091AB0560915305E0
:101740007091540580915505909156050E949B3AE1
:1017500081110CC12091AC053091AD054091AE05D1
:101760005091AF05609157057091580580915905CA
:1017700090915A050E949B3A8111F8C081E2F1C311
:10178000F9A14F2E512C64207520672809F4E0C37D
:1017900021EF222280917A05813009F45AC00BA5ED
:1017A0001CA5000F111F000F111F05581A4FD8015B
:1017B0001B962D913D914D915C911E97C501B401F1
:1017C0000E94C1392B013C01AFA0B8A4AA0CBB1CDC
:1017D000AA0CBB1CF501E558FA4F5F01238534853F
:1017E00045855685C701B6010E94C139A301920102
:1017F0000E94FE186B017C01D8011B962D913D9132
:101800004D915C911E97F50163857485858596855C
:101810000E94FE184B015C0160939B0570939C0530
:1018200080939D0590939E059B01AC01C701B60175
:101830000E94C1396B017C01E894F7F82AE037ED8A
:1018400043EA5BE3C701B6010E949E3C18164CF1C7
:1018500063C186E8682E85E0782E00E010E0C201C2
:10186000002E02C0959587950A94E2F780FF10C07C
:1018700023E333E34BEC51E4D3016D917D918D91E2
:101880009C910E94D93CF30160837183828393838E
:101890000F5F1F4FF4E06F0E711C03301105F9F656
:1018A0007ECF20E030E040E05FE3C701B6010E9458
:1018B0009E3C18160CF462CF2FE632E143E85AE35F
:1018C000C501B4010E94D93C9B01AC01C701B6011E
:1018D0000E949E3C18160CF451CF1EC1552009F4ED
:1018E000DBCC2091A4053091A5054091A60550912F
:1018F000A70560914F057091500580915105909119
:1019000052050E949B3A811107C12091A805309190
:10191000A9054091AA055091AB05609153057091BE
:10192000540580915505909156050E949B3A81116E
:10193000F3C02091AC053091AD054091AE055091BA
:10194000AF056091570570915805809159059091A8
:101950005A050E949B3A882309F410CFDDC028A1C4
:101960002111DAC0C1018E7D9C7FD9C080917A059A
:101970008130B1F423E333E34BEC51E460919B05F8
:1019800070919C0580919D0590919E050E94D93C87
:1019900060939B0570939C0580939D0590939E0595
:1019A00040909B0550909C0560909D0570909E0511
:1019B00020E030E040E850E4C301B2010E94D93C8D
:1019C000A30192010E94D93C2B013C01A701960181
:1019D000C701B6010E94D93C9B01AC01C301B20111
:1019E0000E94C1392B013C01A5019401C501B4013C
:1019F0000E94D93C9B01AC01C301B2010E94C139D4
:101A00002B013C0120E030E0A9010E949B3A87FDB8
:101A1000A7C2C301B2010E94663D2B013C01A50192
:101A20009401C701B6010E94FE189B01AC01C301DD
:101A3000B20190580E94A23A2B013C018091780596
:101A4000833021F477FA709477F8709480919B0535
:101A500090919C05A0919D05B0919E0589A39AA3A4
:101A6000ABA3BCA320E030E0A901BC01CD010E94E2
:101A70009B3A87FF11C077FA709477F8709489A128
:101A80009AA1ABA1BCA1B05880939B0590939C05F3
:101A9000A0939D05B0939E050FA118A5000F111FDF
:101AA000000F111F05581A4FA3019201C501B4017F
:101AB0000E94D93C9B01AC01C701B6010E94C1390B
:101AC00020E030E040E05FE30E94D93CD8011B9663
:101AD0006D937D938D939C931E970BA51CA5000F72
:101AE000111F000F111F05581A4FA3019201C701C2
:101AF000B6010E94D93C9B01AC01C501B4010E9412
:101B0000C23920E030E040E05FE30E94D93CF801B8
:101B10006387748785879687C1018E7D907E892B28
:101B200009F018C28091930590919405A0919505B4
:101B3000B091960580934B0590934C05A0934D056D
:101B4000B0934E0580917905809339058091820587
:101B500090918305A0918405B091850580934605F9
:101B600090934705A0934805B0934905C0909F0501
:101B7000D090A005E090A105F090A205A7019601E4
:101B8000609142057091430580914405909145050F
:101B90000E949B3A8823C1F080914105882321F05F
:101BA000B701A6010E94FF2980919F059091A00591
:101BB000A091A105B091A2058093420590934305A1
:101BC000A0934405B09345058091A30580934A05F1
:101BD0008091810590914105981771F040914205DF
:101BE0005091430560914405709145050E94FF297D
:101BF00080918105809341058091800590914005F9
:101C0000981731F00E9497048091800580934005D9
:101C100080917705813051F4609197057091980516
:101C20008091990590919A050E94061780917C05F4
:101C300080933C0580917A0580933A0588A1833092
:101C4000F9F480917D0580933D05813089F4809180
:101C5000AC059091AD05A091AE05B091AF05809314
:101C6000730590937405A0937505B093760508C02D
:101C700010927305109274051092750510927605F6
:101C800080917E0590913E05981759F080933E050E
:101C90008CE0FE013D96ABE5B5E001900D928A9592
:101CA000E1F780917B0580933B058091770590E07B
:101CB000FC013297E830F10508F04BC0E75BFF4FBD
:101CC0000C94F43DBE016F5F7F4F8E8D0E94CD2638
:101CD00080913E059E8D89133CC08CE0FE013196BB
:101CE000ABE5B5E01AC0A8A1AA2349F020E040E086
:101CF00050E060E87FEB84EA95E00E94B91320E0B1
:101D000040E050E060E87FEBCE0101960E94B913FD
:101D10008CE0FE013196AFE4B5E001900D928A951A
:101D2000E1F717C06FE475E086E003C06FE475E08B
:101D300087E00E94CD260DC08CE0E4EAF5E0A7E63E
:101D4000B5E0EBCF8CE0E7E6F5E0DF011D928A9588
:101D5000E9F78091780580933805883009F498C0B8
:101D6000B8A1B23009F094C090E08830910508F035
:101D700086C0FC01EF5AFF4F0C94F43D20E040E098
:101D800050E060E87FEB0AC040914605509147055E
:101D900060914805709149052091390584EA95E0E4
:101DA0000E94B9136CC0C0904605D0904705E090E2
:101DB0004805F090490500919B0510919C052091E4
:101DC0009D0530919E0581E08F93EAA5EF93F9A5DB
:101DD000FF9315C0C0904605D0904705E090480598
:101DE000F090490500919B0510919C0520919D055F
:101DF00030919E051F928AA58F9399A59F938DA0E0
:101E0000A090390546E855E064EA75E08FE495E076
:101E10000E9407140F900F900F9031C0409146051B
:101E2000509147056091480570914905E12C0AC021
:101E300040914605509147056091480570914905CC
:101E4000EE24E39400E015C040914605509147050B
:101E50006091480570914905E12C0AC04091460502
:101E6000509147056091480570914905EE24E3942F
:101E700001E02091390584EA95E00E9478178CE012
:101E8000E4EAF5E0AFE4B5E001900D928A95E1F760
:101E900080917F0580933F05882309F45DC00E94EF
:101EA000222190913F058091B105913069F48230F3
:101EB000A1F19FB7F89480910F01886080930F0182
:101EC0009FBF0E94751F29C091E090933805109222
:101ED0003C0510923B051092390510923E05109278
:101EE0004105109240058230A9F0BE01635F7F4F2B
:101EF00080E00E942A28882389F18CE0FE013D962B
:101F0000ABE5B5E001900D928A95E1F70E94862934
:101F10000E94580487E00E94AB2110923F051CC02C
:101F200081E01FC082E01DC088E11BC089E119C0AB
:101F300084E017C08BE115C085E213C084E111C0B5
:101F40008EE10FC08FE10DC086E10BC080E209C0B9
:101F500083E207C084E205C080E003C087E001C0DF
:101F600082E2AC960FB6F894DEBF0FBECDBFDF9114
:101F7000CF911F910F91FF90EF90DF90CF90BF9086
:101F8000AF909F908F907F906F905F904F903F9019
:101F90002F9008958091060190E0FC01EE0FFF1F45
:101FA000ED5FF84F0190F081E02D2081DC01AD5A0A
:101FB000B84F8C918095822380838091050190E0B9
:101FC000FC01EE0FFF1FED5FF84F0190F081E02D57
:101FD0002081DC01AD5AB84F8C918095822380839B
:101FE0008091040190E0FC01EE0FFF1FED5FF84FC0
:101FF0000190F081E02D2081DC01AD5AB84F8C9129
:10200000809582238083E8E6F0E08081886F80837A
:1020100008958091060190E0FC01EE0FFF1FE55D41
:10202000F84F0190F081E02D2081DC01AD5AB84FCE
:102030008C918095822380838091050190E0FC0142
:10204000EE0FFF1FE55DF84F0190F081E02D20813C
:10205000DC01AD5AB84F8C918095822380838091AA
:10206000040190E0FC01EE0FFF1FE55DF84F0190C9
:10207000F081E02D2081DC01AD5AB84F8C91809524
:10208000822380838091060190E0FC01EE0FFF1F08
:10209000E552F94F0190F081E02D2081DC01AD5A2D
:1020A000B84F8C91282B20838091050190E0FC0192
:1020B000EE0FFF1FE552F94F0190F081E02D2081D6
:1020C000DC01AD5AB84F8C91282B208380910401FC
:1020D00090E0FC01EE0FFF1FE552F94F0190F081F7
:1020E000E02D2081DC01AD5AB84F8C91282B208344
:1020F0008091CB0683FF3CC08091060190E0FC01FB
:10210000EE0FFF1FED5FF84F0190F081E02D208171
:10211000DC01AD5AB84F8C91282B208380910501AA
:1021200090E0FC01EE0FFF1FED5FF84F0190F08192
:10213000E02D2081DC01AD5AB84F8C91282B2083F3
:102140008091040190E0FC01EE0FFF1FED5FF84F5E
:102150000190F081E02D2081DC01AD5AB84F8C91C7
:10216000282B20838091680087608093680002C0DC
:102170000E94CA0F84B7877F84BF80916000886106
:102180008093600081E08093600008958091060153
:1021900090E0FC01EE0FFF1FE959F84F0190F0812C
:1021A000E02D3081FC01ED5AF84F20818091CB0663
:1021B000982F907486FF03C0232381E009F480E008
:1021C0002091050130E0F901EE0FFF1FE959F84FAA
:1021D0000190F081E02D4081F901ED5AF84F208106
:1021E000992319F0242309F082602091040130E042
:1021F000F901EE0FFF1FE959F84F0190F081E02D32
:102200004081F901ED5AF84F2081992321F0942F54
:10221000922309F0846008951F920F920FB60F92D7
:1022200011248F938091600086FD05C0809160002D
:102230008064809360008F910F900FBE0F901F906D
:1022400018951F920F920FB60F9211242F933F9360
:102250004F935F936F937F938F939F93AF93BF93AE
:10226000EF93FF93809160008F7B8093600080915B
:10227000B105813091F080910E0181110EC00E9454
:10228000C610882351F00E9416189FB7F8948091C9
:102290000E01836080930E019FBFFF91EF91BF916C
:1022A000AF919F918F917F916F915F914F913F91EE
:1022B0002F910F900FBE0F901F9018952F923F9265
:1022C0004F925F926F927F928F929F92AF92BF9246
:1022D000CF92DF92EF92FF920F931F93CF93DF93F2
:1022E000CDB7DEB766970FB6F894DEBF0FBECDBF91
:1022F000582E8091B00581115CC1B2EBAB2EB6E0D7
:10230000BB2E9E01235F3F4F190100E010E0C12C5E
:10231000D12C7601652C712C802F0E947229D1015D
:102320008D931D01C301002E02C0959587950A94D7
:10233000E2F780FF1AC020E030E040EC5FEBF501EF
:1023400060817181828193810E94D93C688B472E84
:102350004C01262F372FAC01C701B6010E949E3CCD
:1023600018161CF0C888D42C74010F5F1F4FF4E0BE
:10237000AF0EB11C0330110579F68090D106909014
:10238000D206A090D306B090D40624E0288B01E0BA
:1023900063EB75E0CE0101960E943E382090CC069A
:1023A000312CFE01319683EB95E09E8B8D8B80E086
:1023B00090E0412C10E0B701A60170589301082E5F
:1023C00002C0359527950A94E2F720FF28C0439470
:1023D000AD89BE891D921D921D921C921397910189
:1023E000082E02C0359527950A94E2F720FF03C016
:1023F000002319F007C0002329F0C082D182E282B5
:10240000F38204C040835183628373832DE030E004
:102410002C0F3D1F280F391FD9012C91122B01962B
:1024200034962D893E892C5F3F4F3E8B2D8B833018
:10243000910521F6642D70E080E090E00E943B3B26
:102440000E94663D9B01AC01C501B4010E94D93CCC
:10245000AB01BC011093CC05498B5A8B6B8B7C8BE9
:102460000E948F1D20E049895A896B897C89CE01A1
:1024700001960E94961A0E94B12F0E94272A0023DB
:10248000E9F00E94C610FE013D9620E030E090E0A9
:102490006191462F412359F0AC01022E02C055959F
:1024A00047950A94E2F740FF02C0609516232F5F1C
:1024B0003F4F2330310561F71093CC050E94B12FB7
:1024C00080910F018473C1F080910F01807329F016
:1024D0000E9416180E94751F6CC0011165C00E94F1
:1024E000C6108521A9F79FB7F89480910F018B7FC3
:1024F00080930F019FBF04C0812F8C7109F0BFCF63
:102500000E94582E0E943F1A8091D5069091D606BF
:102510000E94F31831E00327C9F020E030E040EAE0
:1025200050E46091D7067091D8068091D9069091B9
:10253000DA060E94D93C6B017C018090CD06909018
:10254000CE06A090CF06B090D00610C0C090D7069F
:10255000D090D806E090D906F090DA068090D106A7
:102560009090D206A090D306B090D406888981506E
:10257000888B81110DCFE3EBF5E080E090E09301D3
:10258000082E02C0359527950A94E2F720FF04C073
:102590001082118212821382019634968330910543
:1025A00071F70E948F1D05C080910F0182FF9BCFA4
:1025B0008FCF66960FB6F894DEBF0FBECDBFDF910A
:1025C000CF911F910F91FF90EF90DF90CF90BF9030
:1025D000AF909F908F907F906F905F904F903F90C3
:1025E0002F9008958F929F92AF92BF92CF92DF92D9
:1025F000EF92FF920F931F93CF93DF93C090CC067F
:10260000D12CC2EBEC2EC6E0FC2E8C01C0E0D0E059
:10261000C6010C2E02C0959587950A94E2F7F80141
:1026200080809180A280B38020E030E0A90180FF0B
:1026300015C0C501B4010E949B3A87FD20C0F70177
:1026400080819181A281B3819C01AD015058C50167
:10265000B4010E949E3C181694F040C0C501B4011C
:102660000E949E3C18165CF0F70120813181428166
:102670005381C501B4010E949B3A87FF2FC080910E
:10268000B1058830C1F00E9416189FB7F894809168
:102690000E01856080930E019FBFDF91CF911F9146
:1026A0000F91FF90EF90DF90CF90BF90AF909F90F1
:1026B0008F900C94751F9FB7F89480910F018860DC
:1026C00080930F019FBF0E94751F8091B0058111FB
:1026D0000FC08091B1058111F6CFD5CF2196F4E0DE
:1026E000EF0EF11C0C5F1F4FC330D10509F090CFE6
:1026F000DF91CF911F910F91FF90EF90DF90CF90DE
:10270000BF90AF909F908F9008950E9458380E947C
:10271000D8250E9465290E94E42E0E94FC358DE197
:10272000E0EBF5E0DF011D928A95E9F781E0809307
:10273000B00578940E94B8260E945A050E949A29F2
:102740000E946C040E9409100E94051F0E943F1AFB
:102750000E94582E0E948F1D0E946C051092B00599
:1027600010920F0110920E011092B2050E94A0204B
:10277000E1CFEF92FF921F93CF93DF9300D000D071
:10278000CDB7DEB77C01122F8091CB0685FF0BC041
:10279000C70149835A836B837C830E94F2127C8138
:1027A0006B815A8149818091B105823031F1498331
:1027B0005A836B837C830E94751F8091B0058111C1
:1027C0001CC00E948E1A49815A816B817C818823AA
:1027D00039F00E94972049815A816B817C81E7CF33
:1027E000212FC7010F900F900F900F90DF91CF9185
:1027F0001F91FF90EF900C94961A0F900F900F90EE
:102800000F90DF91CF911F91FF90EF9008952F923D
:102810003F924F925F926F927F928F929F92AF9270
:10282000BF92CF92DF92EF92FF920F931F93CF93BD
:10283000DF93CDB7DEB7E7970FB6F894DEBF0FBED4
:10284000CDBF9C8B8B8B1B013A0109871A872B8785
:102850003C87AF8A2D961FAD2D972E962FAD2E97C4
:10286000298B2F963FAD2F973D8B84E0889EA0014A
:1028700011245A834983AB89BC89A40FB51FB98F32
:10288000A88F460D571D5B8F4A8FFA01808091807B
:10289000A280B3802D913D914D915C91C501B40111
:1028A0000E94C2396C8F7D8F8E8F9F8FF4E01F9FA7
:1028B000800111242B893C89200F311F39A328A3C3
:1028C000A301400F511F5BA34AA3DA014D905D9015
:1028D0006D907C90F9012081318142815381C30147
:1028E000B2010E94C2396CA37DA38EA39FA3A50150
:1028F000940150582D873E874F87588BD301C201D2
:10290000B0588D839E83AF83B887E981FA81E20D49
:10291000F31D2C8D3D8D4E8D5F8D60817181828187
:1029200093810E94C1392B013C01F101E00FF11F9D
:102930002CA13DA14EA15FA1608171818281938113
:102940000E94C1394B015C01A30192016D857E8516
:102950008F8598890E94D93C69837A838B839C8375
:10296000A50194016D817E818F8198850E94D93C5B
:102970009B01AC0169817A818B819C810E94C23963
:1029800069837A838B839C83A50194016D857E8501
:102990008F8598890E94D93C4B015C01A30192016B
:1029A0006D817E818F8198850E94D93C9B01AC010D
:1029B000C501B4010E94C13929813A814B815C81F2
:1029C0000E94353A2B013C019D89992399F02DEB0A
:1029D00037E346E055EBC301B2010E949E3C87FD00
:1029E0001DC02BED3FE049EC50E4C301B2010E9451
:1029F000C13912C02DEB37E346E055E3C301B20104
:102A00000E949B3A181654F02BED3FE049EC50E43D
:102A1000C301B2010E94C2392B013C018090C7065C
:102A20009090C806A090C906B090CA0629853A853C
:102A30004B855C85CA01B9010E94C239A501940188
:102A40000E94C1399B01AC01C501B4010E94D93C6F
:102A50000E94663D4B015C0120E030E040E05FE316
:102A6000C301B2010E94D93C29853A854B855C851A
:102A70000E94D93C9F77A50194010E94A23A0E942E
:102A8000783B0E940F3B7E8B6D8BDB01AB2B09F4F7
:102A900086C14B01A12CB12CBF89BB2361F0C501BC
:102AA000B4010E943B3B9B01AC01C701B6010E94EF
:102AB000D93C6B017C01C501B4010E943B3B4B0139
:102AC0005C019B01AC01C301B2010E94A23A69877B
:102AD0007A878B879C87F989E4E0FE9FC0011124E7
:102AE0002B893C89280F391F3A8B298BF101E80F7C
:102AF000F91FD9012D913D914D915C9160817181BA
:102B0000828193810E94C139A50194010E94A23A59
:102B10006CAB7DAB8EAB9FAB29853A854B855C85D5
:102B2000CA01B9010E94D93C9B01AC0160E070E090
:102B300080E090E40E94C1394B015C012BEA3AEA43
:102B40004AE25EE369857A858B859C850E94D93C43
:102B50002B013C0120E030E040E850E4C501B40125
:102B60000E94C2399B01AC01C301B2010E94D93C51
:102B700068A779A78AA79BA720E030E040E05FE341
:102B8000C501B4010E94D93C6CA77DA78EA79FA761
:102B9000198201E010E0ED89FE890E171F0709F484
:102BA000FEC0B981BC3008F04AC02CA53DA54EA599
:102BB0005FA56D817E818F8198850E94D93C4B01F4
:102BC0005C0128A539A54AA55BA56D857E858F8505
:102BD00098890E94D93CA50194010E94C239B62E61
:102BE000A72E982E892E2CA53DA54EA55FA56D85F7
:102BF0007E858F8598890E94D93C2B013C0128A5B0
:102C000039A54AA55BA56D817E818F8198850E943B
:102C1000D93C9B01AC01C301B2010E94C1396D874F
:102C20007E878F87988BE981EF5FE9838B2D9A2DC3
:102C3000A92DB82D8D839E83AF83B8876EC0B80150
:102C400080E090E00E943B3B29853A854B855C857E
:102C50000E94D93C4B015C010E949F3A6D837E83A8
:102C60008F839887C501B4010E945C3D4B015C01D4
:102C7000EA8DFB8D80819181A281B3819C01AD01A0
:102C8000505829833A834B835C83AAA1BBA18D91C1
:102C90009D910D90BC91A02D88AB99ABAAABBBAB1D
:102CA0002D813E814F81588569817A818B819C81FC
:102CB0000E94D93C2B013C01A501940168A979A986
:102CC0008AA99BA90E94D93C9B01AC01C301B20116
:102CD0000E94C2396D877E878F87988BA5019401EA
:102CE00069817A818B819C810E94D93C4B015C0176
:102CF0002D813E814F81588568A979A98AA99BA910
:102D00000E94D93C9B01AC01C501B4010E94C139AC
:102D10006D837E838F83988719822D853E854F85AD
:102D200058896C8D7D8D8E8D9F8D0E94C239E88D66
:102D3000F98D60837183828393832D813E814F81DE
:102D400058856CA17DA18EA19FA10E94C239A8A126
:102D5000B9A16D937D938D939C9313972CA93DA955
:102D60004EA95FA9E989FA89608171818281938185
:102D70000E94C239A989BA896D937D938D939C93E2
:102D800013972F89B701A6018B899C890E94B913DB
:102D90008091B005811121C00F5F1F4FFCCE2F899C
:102DA000B701A601C101E7960FB6F894DEBF0FBECA
:102DB000CDBFDF91CF911F910F91FF90EF90DF90EA
:102DC000CF90BF90AF909F908F907F906F905F90CB
:102DD0004F903F902F900C94B913E7960FB6F8944C
:102DE000DEBF0FBECDBFDF91CF911F910F91FF903E
:102DF000EF90DF90CF90BF90AF909F908F907F909B
:102E00006F905F904F903F902F9008958F929F9278
:102E1000AF92BF92CF92DF92EF92FF924B015C0193
:102E20008091B105823009F447C020E030E040EAEB
:102E300051E4C501B4010E94D93C0E94783B0E9434
:102E40000F3B6B017C010E94222120E030E04AE729
:102E500054E4C501B4010E94D93C4B015C0182E3FA
:102E60008C9DB0018D9D700D112480E090E00E943A
:102E70003B3B9B01AC01C501B4010E94C1390E94DA
:102E8000783B0E940F3BCB010E94F318C114D10480
:102E900099F00E94751F21E0C21AD1088091B005F7
:102EA00081110AC08FEF90E722E0815090402040CE
:102EB000E1F700C00000EACFFF90EF90DF90CF90E5
:102EC000BF90AF909F908F9008950E94CA0F84E0AA
:102ED0000E945E1183E00E945E110E94751F809126
:102EE000B005811104C00E946C050C94091008956E
:102EF000CF92DF92EF920F93CF93DF9300D000D069
:102F00001F92CDB7DEB76C018091B105823009F414
:102F100081C02D8349835A836B837C830E94222145
:102F20001092CB05802F0E942B1F0E94471F2D81DE
:102F300049815A816B817C818823A1F09FB7F894E5
:102F400080910E01806180930E019FBF2D83498384
:102F50005A836B837C830E94751F7C816B815A81AD
:102F600049812D818091B005811154C0C6010E9414
:102F7000B91381E0809310019FB7F89480910F01FD
:102F8000826080930F019FBF0E94751F8091B005E2
:102F9000811140C08091B1058111F6CF809110015F
:102FA0008130A9F4EE2051F08CE0E3EBF5E0AFEBDB
:102FB000B5E001900D928A95E1F70CC09FB7F894A7
:102FC00080910E01806180930E019FBF03C081E05C
:102FD0008093CB05109210010E94751F8091B0055F
:102FE000811118C00E94582E0E943F1A0E948F1D06
:102FF00063EB75E0C6010E943E380F900F900F9072
:103000000F900F90DF91CF910F91EF90DF90CF90C5
:103010000C9443230F900F900F900F900F90DF911F
:10302000CF910F91EF90DF90CF90089580910F0195
:1030300084FD26C09FB7F89480910F018061809332
:103040000F019FBF0E9486290E9458048091B105FC
:10305000982F9C7021F49091B205913089F49FB71C
:10306000843029F4F89480910E01806204C0F894B1
:1030700080910E01886080930E019FBF0C94682A96
:1030800008956F927F928F929F92AF92BF92CF924C
:10309000DF92EF92FF920F931F93CF93DF937C0108
:1030A0008B016A01FB018081F701E80FF11D20818E
:1030B000EF012D3229F4229621816624639407C002
:1030C0002B3211F0219602C022962181612CA12C75
:1030D000B12C712C60E070E0CB01FE0130ED932E3D
:1030E000920E29E02915C8F0B39428E02B1588F03A
:1030F000A1107A94A5E0B0E09B01AC010E94FA3DDA
:10310000660F771F881F991F690D711D811D911D05
:103110000BC0A11009C0739407C02EEF921207C014
:10312000A11005C0AA24A39421962081D6CFBB204C
:1031300009F449C00E943B3B4B015C0120E030E0B8
:10314000A9010E949B3A882361F18FEF78166CF4F5
:103150002AE037ED43E25CE3C501B4010E94D93CAB
:103160004B015C0173947394F0CF78120BC02DEC7B
:103170003CEC4CEC5DE3C501B4010E94D93C4B0131
:103180005C010FC0772069F020E030E040E251E4BC
:10319000C501B4010E94D93C4B015C017A9417141B
:1031A0009CF3662021F0B7FAB094B7F8B094F6011A
:1031B00080829182A282B382CE19DF09C150F801C8
:1031C000C08381E001C080E0DF91CF911F910F911A
:1031D000FF90EF90DF90CF90BF90AF909F908F9037
:1031E0007F906F900895009741F0EFE9FFE03197ED
:1031F000F1F700C000000197F6CF08958F929F92DB
:10320000AF92BF92CF92DF92EF92FF9269017A0163
:103210009B01AC010E94D93C4B015C01A7019601C6
:10322000C701B6010E94D93C9B01AC01C501B401A4
:103230000E94C239FF90EF90DF90CF90BF90AF9087
:103240009F908F900C94663D4F925F926F927F9209
:103250008F929F92AF92BF92CF92DF92EF92FF92A6
:103260000F931F93CF93DF9310912F01111101C082
:1032700012E1115000912D01101709F4EFC089E2FD
:10328000189FE0011124CF5CDE4F8D889E88AF88A7
:10329000B88C69A17AA18BA19CA19B01AC010E9471
:1032A000C2392DA13EA14FA158A50E94D93C6B0166
:1032B0007C019B01AC01B401C5010E949B3A87FFD0
:1032C00002C064017501A601B701498B5A8B6B8B53
:1032D0007C8B111101C012E177247A94710E701663
:1032E00019F029E2622E27C080913001081351C0E5
:1032F0000E948F2F4EC0679C800111240F5C1E4FCF
:10330000711002C092E1792E7A9480913001781286
:1033100002C00E948F2FF801C588D688E788F08CFC
:10332000A701960161897289838994890E949B3AD9
:10333000811106C0E80180912D017812DCCF29C0EF
:10334000F80161A172A183A194A19B01AC010E942B
:10335000C239F80125A136A147A150A50E94D93C48
:1033600029893A894B895C890E94C2394B015C01E9
:10337000A70196010E949B3AF80187FF05C0818A48
:10338000928AA38AB48AD6CFC18AD28AE38AF48A7F
:10339000D1CF60902D01F9E26F9E800111240F5C66
:1033A0001E4F77247394760C82E1781201C0712C41
:1033B00050902F0189E2482E751409F44DC0479CA6
:1033C000E0011124CF5CDE4FF80181889288A38848
:1033D000B488C988DA88EB88FC88A7019601C50102
:1033E000B4010E949B3A87FF23C0F80161A172A13A
:1033F00083A194A19B01AC010E94C239F80125A1CF
:1034000036A147A150A50E94D93C9B01AC01C50142
:10341000B4010E94C2394B015C01A70196010E94D0
:103420009B3A87FF05C0898A9A8AAB8ABC8A672C37
:103430002D893E894F89588D69897A898B899C8924
:103440000E949B3A811101C0672C7394F2E17F12B4
:1034500001C0712C8E01B0CF60922D01DF91CF9110
:103460001F910F91FF90EF90DF90CF90BF90AF90A2
:103470009F908F907F906F905F904F9008958CE118
:10348000E1E1F1E0DF011D928A95E9F71092300148
:1034900010922F0181E080932E0110922D0108954A
:1034A0009091300180912F01891769F081E0890F97
:1034B000823109F480E020912D01921302C08093A3
:1034C0002D018093300108958091300190912F015A
:1034D000981739F029E2829FC00111248F5C9E4F1A
:1034E000089580E090E00895E0913001EF5FE231CF
:1034F00009F4E0E080912F01E81761F089E2E89F8C
:10350000F0011124EF5CFE4F6189728983899489EF
:103510000C94663D60E070E0CB01089581E020915D
:10352000300190912E01291380E008952F923F924F
:103530004F925F926F927F928F929F92AF92BF92C3
:10354000CF92DF92EF92FF920F931F93CF93DF936F
:10355000CDB7DEB7AD970FB6F894DEBF0FBECDBFC7
:10356000142F052F6B8F7C8F822E20912F0139E233
:10357000239F10011124F101EF5CFE4F1F011586FE
:1035800016861786108A15A216A217A210A61082F8
:1035900049E956E766E97EE741A352A363A374A312
:1035A0005C014EE8E42E46E0F42E9E01235F3F4F7F
:1035B00038A32F8F81E191E09E8F8D8F6F01FE01E7
:1035C0003196FAA3E9A3912CF50161917191819152
:1035D00091915F01F70120813181428153810E94E5
:1035E000D93C0E94A93CEF8DF8A16193719381931E
:1035F0009193F8A3EF8FED8DFE8D419051906190E6
:103600007190FE8FED8F64197509860997092B015A
:103610003C0197FF07C0442455243201461A570A3B
:10362000680A790AF6014182528263827482F1014A
:1036300025853685478550894216530664067506EA
:1036400010F429013A01F101458656866786708A91
:103650000E943D3BF70120813181428153810E94CC
:10366000A23A2B013C01E9A1FAA1619371938193E4
:103670009193FAA3E9A320E030E0A9010E949B3ACC
:1036800087FF0AC0F1019081892D9DA70E947C29A6
:103690009DA5892BF1018083A3019201C301B20191
:1036A0000E94D93CF10125A136A147A150A50E9455
:1036B000C239F10165A376A387A390A79394F4E0A0
:1036C000EF0EF11C24E0C20ED11C33E093127CCF2C
:1036D0000E94663D6B017C01F10165A376A387A37F
:1036E00090A785859685A785B089892B8A2B8B2BFA
:1036F00009F4FCC120E030E0A901612F702F8B8D0F
:103700009C8D0E949B3A87FD21C0882061F0A70113
:103710009601612F702F8B8D9C8D0E94D93C162FA6
:10372000072F8B8F9C8F20E030E040E85FE3612F14
:10373000702F8B8D9C8D0E949B3A87FF0DC010E0EF
:1037400000E030E83B8F8FE38C8F06C019E906E775
:10375000F6E9FB8F2EE72C8FA701960160E070E061
:1037600080E89FE30E94A23A69A77AA78BA79CA74B
:10377000EDE1F1E0FAA3E9A32AE936E038A32F8FBF
:10378000CE010D969A8F898FFE013196FE8FED8FB7
:10379000C12CD12C7601ED8DFE8D80809180A28090
:1037A000B38020E030E0A901C501B4010E949B3A3A
:1037B000882309F47FC029A53AA54BA55CA5C501BE
:1037C000B4010E94D93C4B015C01ED8DFE8D6083FC
:1037D0007183828393839B01AC0160E070E080E899
:1037E0009FE30E94A23A2B013C01E89477F8EF8D09
:1037F000F8A12081318142815381C301B2010E942D
:10380000D93C6BA37CA38DA39EA39B01AC01612F2C
:10381000702F8B8D9C8D0E949B3A87FF06C01BA347
:103820000CA3FB8DFDA32C8D2EA3F101F1A1FB8F29
:10383000F101F2A1FC8FF101F3A1FFA3F101F4A1C9
:10384000F8A7EF8DF8A12485358546855785C301F6
:10385000B2010E94D93C3B018C019B01AC016B8DF4
:103860007C8D8FA198A50E949B3A87FF04C06B8C2A
:103870007C8C0FA118A5C301D801F10181A392A3EB
:10388000A3A3B4A3E9A1FAA120813181428153818C
:10389000C501B4010E94D93C9B01AC01C701B6012E
:1038A0000E94C1396B017C011BA10CA1FDA1FB8F02
:1038B0002EA12C8F8D8D9E8D04969E8F8D8FE9A1CC
:1038C000FAA13496FAA3E9A32F8D38A12C5F3F4FBC
:1038D00038A32F8FE98DFA8D8E179F0709F05BCFE4
:1038E00090912F0180913001981306C0F101118A47
:1038F000128A138A148A0BC024EA30E74DE75FE38B
:10390000C701B6010E949E3C181634F4F101118ED5
:10391000128E138E148E5BC024EA30E74DE75FEB06
:10392000C701B6010E949E3C181644F034EAC32E2B
:1039300030E7D32E3DE7E32E3FEBF32EA7019601B0
:1039400060E070E080E89FE30E94C13920E030E051
:1039500040E05FE30E94D93C0E94663D6B017C0120
:103960002091C3063091C4064091C5065091C60609
:10397000F10161A172A183A194A10E94D93CA70188
:1039800096010E94D93C4B015C01A701960160E0C1
:1039900070E080E89FE30E94C1399B01AC01C50142
:1039A000B4010E94A23A6B017C0120E030E0A90141
:1039B0000E949B3A87FF04C0C12CD12CE12CF12C32
:1039C000A601B701F101418F528F638F748F212FB0
:1039D000302F4B8D5C8D612F702F8B8D9C8D0E94B5
:1039E000D93C162F072FF82EE92E862F902FAF2DBA
:1039F000BE2DF101858F968FA78FB0A3A18CB28CBD
:103A0000C38CD48C6090290170902A0180902B0186
:103A100090902C019301A401612F702F8F2D9E2D6A
:103A20000E949B3A87FD0BC09301A401B501C6011A
:103A30000E949B3A87FD11C0530164010EC0212FE3
:103A4000302F4F2D5E2DB501C6010E949B3A87FD98
:103A500004C0A12EB02ECF2CDE2CC501D601F10161
:103A6000858B968BA78BB08F8CE0FE013196ADE1F4
:103A7000B1E001900D928A95E1F7812F902FAF2D43
:103A8000BE2D8093290190932A01A0932B01B0931E
:103A90002C018CE0FE013D96A1E1B1E001900D9278
:103AA0008A95E1F780912E0180932F018F5F8231FB
:103AB00009F480E080932E01AD960FB6F894DEBF36
:103AC0000FBECDBFDF91CF911F910F91FF90EF906F
:103AD000DF90CF90BF90AF909F908F907F906F902E
:103AE0005F904F903F902F900C942419AD960FB695
:103AF000F894DEBF0FBECDBFDF91CF911F910F9124
:103B0000FF90EF90DF90CF90BF90AF909F908F90FD
:103B10007F906F905F904F903F902F90089580918D
:103B2000B3059091B405A091B505B091B605809309
:103B3000110190931201A0931301B093140180918D
:103B4000B7059091B805A091B905B091BA058093D9
:103B5000150190931601A0931701B093180180915D
:103B6000BB059091BC05A091BD05B091BE058093A9
:103B7000190190931A01A0931B01B0931C010895A1
:103B800080912F0190913001891708F48E5E891B76
:103B900008950E948F2F8091300180932D010C9405
:103BA0002419CF93DF93EC018991882319F00E94A7
:103BB000EE25FACFDF91CF910895CF93DF93FC01EB
:103BC0008491EF012196882321F00E94EE25FE01C9
:103BD000F7CFDF91CF910895EF92FF920F931F934C
:103BE000CF93DF931F92CDB7DEB7262FEDB6FEB68B
:103BF0006DB77EB7641B71090FB6F8947EBF0FBE18
:103C00006DBF0DB71EB70F5F1F4F302FF8019E2FEE
:103C1000931B941728F4622F0E94C63D9193F7CF0F
:103C2000442361F0F801E40FF11D31978081805D3C
:103C300049830E94EE2549814150F2CF0FB6F89496
:103C4000FEBE0FBEEDBE0F90DF91CF911F910F9181
:103C5000FF90EF90089548E062E00C94EC1D8A30EC
:103C600020F0843620F442E003C041E001C043E08C
:103C70006AE00C94EC1D8F929F92AF92BF92CF920C
:103C8000DF92EF92FF920F931F93CF93DF93CDB705
:103C9000DEB72A970FB6F894DEBF0FBECDBF6B011B
:103CA0007C01142F20E030E0A9010E949B3A87FF9D
:103CB00007C08DE20E94EE25F7FAF094F7F8F09431
:103CC000012F023060F020E030E048EC52E4C70100
:103CD000B6010E94D93C6B017C010250F2CF10FF6B
:103CE0000AC020E030E040E251E4C701B6010E9482
:103CF000D93C6B017C0120E030E040E05FE3C7018C
:103D0000B6010E94C2390E940A3BE1E0F0E0EC0FEC
:103D1000FD1FE10FF11D2EE22083D12C5AE0852EEC
:103D2000912CA12CB12C6115710581059105A9F08B
:103D3000D11201C0D394EE24E394F12CEC0EFD1EBD
:103D4000ED0CF11CA50194010E94D23D605DF701CC
:103D50006083B901CA01D394E6CF80E3D11648F459
:103D6000E1E0F0E0EC0FFD1FED0DF11D8083D39439
:103D7000F5CF8D2DD1120BC0D394D3948F5FE1E09A
:103D8000F0E0EC0FFD1FE80FF11D80E38083DD20E4
:103D900041F0FE01ED0DF11D80810E94EE25DA94C7
:103DA000F6CF2A960FB6F894DEBF0FBECDBFDF91D7
:103DB000CF911F910F91FF90EF90DF90CF90BF9028
:103DC000AF909F908F9008952091CB0620FF08C060
:103DD0002BE832E441E25DE30E94D93C44E001C0BB
:103DE00043E00C943B1E2091CB0620FF08C02BE83B
:103DF00032E441E25DE30E94D93C41E001C040E091
:103E00000C943B1E43E00C943B1E8091000190E01B
:103E1000FC01EE0FFF1FE55DF84F0190F081E02DF2
:103E20002081DC01AD5AB84F8C918095822380832C
:103E30008091000190E0FC01EE0FFF1FE552F94F69
:103E40000190F081E02D2081DC01AD5AB84F8C91BA
:103E5000282B208308951092CD059091CB0697FDD5
:103E600008C0E0910001F0E0ED5AF84F9081909386
:103E7000CD05882359F0E0910001F0E0ED5AF84FAC
:103E800090818091CD0589278093CD05089520915B
:103E9000000130E0F901EE0FFF1FE959F84F0190E2
:103EA000F081E02D8081F901ED5AF84F908189234E
:103EB0009091CD0589270895809110018130A1F45A
:103EC0000E94471F882381F0109210018CE0E3EBE1
:103ED000F5E0AFEBB5E001900D928A95E1F78091A6
:103EE0000F01806480930F010895EF92FF920F936A
:103EF0001F93CF93DF93D1E008E080E2F82E10E12A
:103F000090E4E92EC0910E01CC2389F1D093B10544
:103F1000C1FF02C081E00FC0C2FF02C082E00BC03F
:103F2000C3FF02C083E007C0C4FF02C084E003C037
:103F3000C5FF03C085E00E948121C0FD08C08FB786
:103F4000F89490910E0110920E018FBF10C081E085
:103F50000E94AB219FB7F89480910F018F7E8093D0
:103F60000F019FBF80910F0184FFFCCFE8CFC0916C
:103F70000F01CC2309F4BCC0C4FF04C081E08093CE
:103F8000B005CEC0C0FF0AC00E94D0249FB7F894ED
:103F900080910F018E7F80930F019FBF8C2F8876B9
:103FA00009F43CC08091B105882349F0982F9C7793
:103FB00069F1883021F40E948F2FD093B20580914F
:103FC000B105811103C092E09093B205C6FF09C00C
:103FD000883011F4E092B1058091B2058860809339
:103FE000B205C3FF05C08091B10585FF1093B105EF
:103FF000C5FF0CC086E00E94AB218091B20581FD17
:10400000C46084608093B205F092B1059FB7F894C4
:1040100080910F01877980930F019FBFC1FF48C036
:104020008C2F8876E9F58091B105882331F0807571
:10403000B9F18091B20581FF33C08091B20582FF52
:104040001CC080914105882371F040914205509138
:10405000430560914405709145050E94C02980EA9E
:104060009FE00E94F31880914005882331F00E9460
:10407000800488EE93E00E94F3180E94641A892B52
:1040800059F08091B20583FD07C00093B1050E94ED
:10409000B12F0E94272A02C01092B1051092B205DA
:1040A0009FB7F89480910F018D7F80930F019FBF80
:1040B000C2FF1EC08091B105807371F08091B2057E
:1040C00082FF04C00E9486290E9458048091B20594
:1040D00082608093B20504C01092B2051092B105BF
:1040E0009FB7F89480910F018B7F80930F019FBF42
:1040F0008091B1058C7711F00E94B12F8091B105AC
:10410000803251F48091B20581FF06C00E94FD35D6
:10411000811102C01093B1058091B2058111F2CED8
:10412000DF91CF911F910F91FF90EF9008959FB76E
:10413000F89480910F01826080930F019FBF0895D2
:10414000CF93DF930E94DA218091B105813021F471
:1041500082E00E94AB212FC00E94FD35882341F0F0
:1041600080910F01806280930F010E94751F02C031
:104170001092B10583E194E00E94FE351CC08D30A1
:1041800079F0DD2399F1893221F4D13009F04CC066
:10419000D0E00E9434268F3F09F448C08A3079F776
:1041A000EC2FF0E0ED5EFB4F10820E94751F8091B6
:1041B000B005882311F0C0E0EBCF8091130481118A
:1041C00003C00E943321F7CF843229F483E194E0C5
:1041D0000E941D36F6CF8091B105813011F489E03F
:1041E000F0CF83E194E00E947205EBCF813288F238
:1041F0008F3279F28832B1F08B33B1F0CF3428F0BE
:104200008BE00E943321C0E0C4CF2C2F30E0CF5F81
:104210009FE9980FF901ED5EFB4F9A3108F4805247
:104220008083B7CFD1E0B5CFD2E0B3CF0E94972043
:104230000E94751F8091B005882309F4AACFDF91F1
:10424000CF9108950E9497200E94751F8091B0051C
:10425000811108C00E94641A892BB1F78091B105C1
:10426000883091F30895CF93C82F811103C08DE654
:1042700098E044C085E698E00E94DD1D4C2F50E098
:10428000FA013197E631F10580F5E75AFF4F0C94BA
:10429000F43D8DE498E002C08BE398E00E94DD1DC0
:1042A0002BC089E298E0FACF8FE198E0F7CF8EE05B
:1042B00098E0F4CF8FEF97E0F1CF8EED97E0EECF5F
:1042C00085ED97E0EBCF8AEC97E0E8CF87EB97E0BE
:1042D000E5CF89EA97E0E2CF83E997E0DFCF8FE788
:1042E00097E0DCCF8BE697E0D9CF89E597E00E9495
:1042F000DD1D8C2F0E942F1E86E597E0CF910C9438
:10430000DD1DCF93C82F8EE497E00E94DD1DC330E2
:1043100091F03CF4C13061F0C230A1F488E397E041
:104320000FC0C43059F0C53069F48EE097E008C082
:1043300083E497E005C085E297E002C08AE197E058
:104340000E94DD1D8BE097E00E94DD1D84EF91E06F
:10435000CF910C94F318CF93C82F89E097E00E9477
:10436000DD1D8C2F90E0FC013197E830F105E8F479
:10437000E159FF4F0C94F43D87EF96E014C083EEB3
:1043800096E011C081ED96E00EC089EC96E00BC07E
:1043900080EC96E008C085EB96E005C08DEA96E0DB
:1043A00002C08AE996E00E94DD1D86E996E0CF9181
:1043B0000C94DD1D86E796E00C94DD1D82E395E00C
:1043C0000C94DD1DFF920F931F93CF93DF938EE22A
:1043D00095E00E94DD1D8091BE060E942F1E85E1A2
:1043E00095E00E94DD1D8091C1060E942F1E87EF7F
:1043F00094E00E94DD1D8091BF060E942F1E8EED6D
:1044000094E00E94DD1D8091BF060E942B1E87ED67
:1044100094E00E94DD1D8091C0060E942F1E8FEB4C
:1044200094E00E94DD1D8091C0060E942B1E88EB47
:1044300094E00E94DD1D8091CB0682FB882780F9E5
:104440000E942F1E87E994E00E94DD1D8091CB061B
:1044500086FB882780F90E942F1E87E794E00E9440
:10446000DD1D8091CB06881F8827881F0E942F1E84
:1044700087E594E00E94DD1D8091C2060E942F1EF8
:1044800081E494E00E94DD1D8091C2060E942B1EF3
:1044900089E394E00E94DD1D6091C3067091C4061B
:1044A0008091C5069091C6060E94021F89E194E0A2
:1044B0000E94DD1D6091C7067091C8068091C906F3
:1044C0009091CA060E94021F8EEF93E00E94DD1DAC
:1044D0008091CB0681700E942F1E81EE93E00E9496
:1044E000DD1D8091CB0685FB882780F90E942F1E59
:1044F00086EC93E00E94DD1D8091CB0683FB88272C
:1045000080F90E942F1E8BEA93E00E94DD1D8091AE
:10451000CB06829581700E942F1E8FE893E00E9447
:10452000DD1D8091CC060E942F1E85E793E00E943E
:10453000DD1D8091CC060E942B1E8DE693E00E942B
:10454000DD1D6091CD067091CE068091CF069091D1
:10455000D0060E94021F80E593E00E94DD1D60915D
:10456000D1067091D2068091D3069091D4060E9414
:10457000021F83E393E00E94DD1D8091D5060E9417
:104580002F1E84E193E00E94DD1D6091D70670919B
:10459000D8068091D9069091DA060E94021F8BEF0F
:1045A00092E00E94DD1D84E6F82E10E0CEE8D6E011
:1045B00000E089EF92E00E94DD1D802F8F0D0E94A8
:1045C0002F1E87EF92E00E94DD1D123071F0133034
:1045D000B9F0113029F0688179818A819B8117C0F7
:1045E0006C857D858E859F8512C020E030E041E698
:1045F00055E4688D798D8A8D9B8D0E94A23A07C003
:104600008CA19DA1AEA1BFA1BC01CD0190580E947B
:10461000021F84EF92E00E94DD1D013029F002307C
:1046200031F082EF92E005C080EF92E002C08EEEA2
:1046300092E00E94DD1D123051F0133059F011301C
:1046400019F084EE92E008C082ED92E005C081ECA2
:1046500092E002C081EB92E00E94DD1D8DEA92E0C3
:104660000E94DD1D0F5F2496033009F0A2CF8AE07F
:10467000F80E1F5F8CE8F81299CFDF91CF911F9150
:104680000F91FF900895CF9387EA92E00E94DD1D7D
:10469000C0E06C2F8FEB95E00E9424380E94E41E4E
:1046A000C23021F085EA92E00E94DD1DCF5FC33069
:1046B00081F783EA92E00E94DD1D8091CB050E9484
:1046C0002F1E8FE992E0CF910C94DD1DEF92FF92A7
:1046D0000F931F93CF93DF93CDB7DEB72C970FB611
:1046E000F894DEBF0FBECDBFF12CBE016F5F7F4FD0
:1046F0008F2D0E942A28811104C087E00E94332157
:1047000069C08CE992E00E94DD1D86E0F81631F068
:10471000E7E0FE1208C086E992E002C089E992E073
:104720000E94DD1D04C086E38F0D0E942F1E84E9C8
:1047300092E00E94DD1D8E010F5F1F4FE12CF801FA
:1047400061917191819191918F010E94E41EF2E03B
:10475000EF1619F082E992E002C08EE892E00E9422
:10476000DD1DE39483E0E812EACFF394E8E0FE1263
:10477000BCCF88E892E00E94DD1D07E615E0F12C31
:10478000F80161917191819191918F010E94E41ED4
:10479000F2E0FF1619F086E892E002C082E892E0AB
:1047A0000E94DD1DF39483E0F812EACF8CE792E0DB
:1047B0000E94DD1D609173057091740580917505EF
:1047C000909176050E94E41E88E792E00E94DD1D2C
:1047D0000E9443232C960FB6F894DEBF0FBECDBFC8
:1047E000DF91CF911F910F91FF90EF90089586E791
:1047F00092E00E94DD1D80913805823091F038F4FE
:10480000882361F08130A9F480E792E00CC0833006
:1048100069F0883071F486E692E005C083E792E0A3
:1048200002C08DE692E00E94DD1D0CC08AE692E097
:10483000FACF81E692E00E94DD1D8091380582501A
:104840000E942F1E8EE592E00E94DD1D80913E05A4
:104850008A5C0E942F1E80913C05813049F028F02F
:10486000823051F48FE492E005C089E592E002C005
:1048700084E592E00E94DD1D80913A05811103C01C
:104880008AE492E002C085E492E00E94DD1D8091FE
:104890003B05811103C080E492E002C08BE392E00B
:1048A0000E94DD1D80913905813019F486E392E084
:1048B00002C081E392E00E94DD1D80913F058130BE
:1048C00049F028F0823051F485E292E005C08DE293
:1048D00092E002C089E292E00E94DD1D80914105D4
:1048E000813031F040F0823051F48DE192E005C02A
:1048F00081E292E002C089E192E00E94DD1D809198
:104900004005882329F0823039F481E192E002C029
:1049100085E192E00E94DD1D8EE092E00E94DD1DA7
:1049200080914A050E942F1E8BE092E00E94DD1DBF
:104930006091460570914705809148059091490521
:104940000E94F31E87E092E00C94DD1D1F93CF932D
:10495000DF93182FEB0184E092E00E94DD1D812F90
:104960000E942F1E82E092E00E94DD1DCE010E9477
:10497000D11D8FEF91E0DF91CF911F910C94DD1D40
:10498000CF93DF93EC018CEE91E00E94DD1DCE0110
:104990000E94D11D88EE91E0DF91CF910C94DD1D36
:1049A000BF92CF92DF92EF92FF920F931F93CF931C
:1049B000DF93CDB7DEB768970FB6F894DEBF0FBEB2
:1049C000CDBF8CE0E3EBF5E0DE011D9601900D928A
:1049D0008A95E1F78091B1058430E9F040F48130A7
:1049E000E9F080F0823009F583EC91E01CC0803161
:1049F00079F018F4883049F018C0803291F0803492
:104A000021F013C082EE91E00EC08DED91E00BC05D
:104A100087ED91E008C081ED91E005C08AEC91E05E
:104A200002C08DEB91E00E94DD1D8091C206837073
:104A300039F0BE01635F7F4FCE0101960E943E3880
:104A40008091C20680FD05C08091C20681FF6DC0C5
:104A50001FC086EB91E00E94DD1D69817A818B8108
:104A60009C810E94E41E84EB91E00E94DD1D6D811B
:104A70007E818F8198850E94E41E84EB91E00E94E4
:104A8000DD1D69857A858B859C850E94E41EDCCFBF
:104A90008DEA91E00E94DD1D9BE5E92E95E0F92E5F
:104AA0008E010F5F1F4FB12C6801F7016191719169
:104AB000819191917F0120853185428553850E94A6
:104AC000C2399B01AC01F8016081718182819381BF
:104AD0000E94C139F8016083718382839383F2E07D
:104AE000BF120FC020917305309174054091750578
:104AF000509176050E94C139F801608371838283E9
:104B000093830C5F1F4FF6016081718182819381D5
:104B10000E94E41EF2E0BF1621F08BEA91E00E94B1
:104B2000DD1DB39423E0B212BFCF8091C20682FF95
:104B300008C085EA91E00E94DD1D0E94C01D0E9410
:104B40002F1E8091C20683FF08C080EA91E00E9478
:104B5000DD1D0E94CF250E942F1E8091C20684FF7A
:104B60000AC08AE991E00E94DD1D0E94C61043E060
:104B700062E00E94EC1D86E991E00E94DD1D6896CE
:104B80000FB6F894DEBF0FBECDBFDF91CF911F915E
:104B90000F91FF90EF90DF90CF90BF90089590918C
:104BA000650480916604891708F48058891B08956C
:104BB000E0ECF0E08081826080831092C50080E1AB
:104BC0008093C400E1ECF0E080818061808380818B
:104BD000886080838081806880830895E091640488
:104BE00091E09E0F903409F490E0209163049213B9
:104BF00005C020910F0124FFF8CF0895F0E0E253A3
:104C0000FA4F8083909364048091C1008062809306
:104C1000C10008951F920F920FB60F9211248F9327
:104C20009F93EF93FF9380916304E82FF0E0E253AA
:104C3000FA4F90819093C6008F5F803409F480E032
:104C40008093630490916404891305C08091C1002E
:104C50008F7D8093C100FF91EF919F918F910F9075
:104C60000FBE0F901F901895909165048091660477
:104C7000891761F0E92FF0E0E25FF94F80819F5FD3
:104C8000903809F490E09093650408958FEF0895AB
:104C90001F920F920FB60F9211242F933F934F93B1
:104CA0005F936F937F938F939F93AF93BF93EF9394
:104CB000FF938091C600813231F180F4883191F107
:104CC0008C31A1F528E088E190E00FB6F894A89522
:104CD000809360000FBE2093600027C08034C9F02D
:104CE0008E3741F08F3311F59FB7F89480910F0103
:104CF000816005C09FB7F89480910F018260809316
:104D00000F019FBF24C09FB7F89480910F01886066
:104D1000F6CF0E94582E0E943F1A0E948F1D1092BB
:104D2000B10515C00E94161812C0FFCFE0916604AD
:104D300091E09E0F903809F490E02091650492175D
:104D400031F0F0E0E25FF94F808390936604FF91C9
:104D5000EF91BF91AF919F918F917F916F915F91F3
:104D60004F913F912F910F900FBE0F901F9018956C
:104D70008091660480936504089521E5829FC001B7
:104D8000112440E550E09D5F0C94D70440E550E0CD
:104D9000BC018EEA93E00C94D7042DE0829FC00101
:104DA00011244CE050E09E5F0C94D70469E080E051
:104DB00090E00E94B5044DE450E06EE876E081E0BA
:104DC00090E00C94D704EF92FF920F931F93CF9330
:104DD000DF93CDB7DEB72C970FB6F894DEBF0FBECA
:104DE000CDBF182F80FFD2C08AE08093BE0688EC2A
:104DF0008093C1061092BF061092C00683E0809394
:104E0000C2068DEC9CECACE4BDE38093C3069093AA
:104E1000C406A093C506B093C6068AE097EDA3E248
:104E2000BCE38093C7069093C806A093C906B093CD
:104E3000CA061092CC0680E090E0A8ECB1E4809322
:104E4000CD069093CE06A093CF06B093D00680E017
:104E500090E0AAEFB3E48093D1069093D206A0939A
:104E6000D306B093D4068AEF90E09093D606809351
:104E7000D50680E090E0A0E8BFE38093D70690934A
:104E8000D806A093D906B093DA0680E48093CB06C7
:104E900040E050E068EC73E440938E0650938F0638
:104EA00060939006709391064093920650939306F8
:104EB00060939406709395064093960650939706D8
:104EC000609398067093990640E050E86BEB74E4A9
:104ED00040939A0650939B0660939C0670939D06A0
:104EE00040939E0650939F066093A0067093A10680
:104EF0004093A2065093A3066093A4067093A50660
:104F000040E058EC6FEA78E44093A6065093A70679
:104F10006093A8067093A9064093AA065093AB0627
:104F20006093AC067093AD0680E098ECAFE2B8E415
:104F30008093AE069093AF06A093B006B093B106EF
:104F400080E090E0A8E4B3EC8093B2069093B306BF
:104F5000A093B406B093B50680E090E0A6E9B3EC68
:104F60008093B6069093B706A093B806B093B9069F
:104F700080E090E0A8ECB2EC8093BA069093BB0678
:104F8000A093BC06B093BD060E94D62611FF10C0A8
:104F9000CE0101967C018CE0F70111928A95E9F728
:104FA00000E0B701802F0E94CD260F5F0830C9F7BF
:104FB00012FF0AC060E080E093E00E94B50460E068
:104FC00081E593E00E94B50413FF05C060E08EEA1E
:104FD00093E00E94B5042C960FB6F894DEBF0FBE86
:104FE000CDBFDF91CF911F910F91FF90EF9008956A
:104FF0001F93CF93DF93182FEB0181E5189FB0012A
:1050000011247D5F40E550E0CE010E941505892BFB
:1050100039F41882BE01812F0E94BD2680E001C0B4
:1050200081E0DF91CF911F910895CF93DF93EC0141
:1050300040E550E06EEA73E00E941505892B31F4DB
:105040001882CE010E94C62680E001C081E0DF9177
:10505000CF9108951F93CF93DF93182FEB018DE02D
:10506000189FB00111247E5F4CE050E0CE010E94F9
:105070001505892B59F48CE0FE0111928A95E9F708
:10508000BE01812F0E94CD2680E001C081E0DF912A
:10509000CF911F91089580E090E00E94AD04893087
:1050A00059F44DE450E061E070E08EE896E00E9433
:1050B000150521E0892B09F420E0822F0895CF9275
:1050C000DF92EF92FF92CF93DF93C82F6A017B01AB
:1050D00020E030E0A901C701B6010E949B3A87FD9C
:1050E000E6C0C43608F445C02CE92C0F80E023301C
:1050F000B8F530E0823079F0F901EE0FFF1FEE0FC6
:10510000FF1F833011F1813019F0E257F94F23C0AE
:10511000E656F94F20C0E901CC0FDD1FCC0FDD1F93
:10512000CA55D94F20E030E040E752E4C701B6014C
:105130000E94D93C20E030E040E752E40E94D93C94
:10514000688379838A839B83AEC0EE54F94FF7FA64
:10515000F094F7F8F094C082D182E282F382A3C087
:105160008F5F2A3008F4A5C0843009F4A2C02A5009
:10517000BECFC701B6010E94A73D0E940F3B8C2FF6
:1051800090E08C31910508F094C0FC01E958FF4F84
:105190000C94F43D633008F48EC06093BE0683C067
:1051A0006093C10680C06093BF0602C06093C006D2
:1051B0000E941A2E78C08091CB06662311F084607D
:1051C00007C08B7F05C08091CB06662321F08064E9
:1051D0008093CB0668C08F7BFBCF8091CB06662384
:1051E00011F08068F5CF8F77F3CF6093C2065BC074
:1051F000C092C306D092C406E092C506F092C606DD
:1052000052C0C092C706D092C806E092C906F0927A
:10521000CA0649C08091CB06662311F08160D8CFC1
:105220008E7FD6CF8091CB06662321F084FF45C0C8
:105230008062CECF8F7DCCCF8091CB06662311F0DC
:10524000886001C0877F8093CB060E9409102BC025
:105250008091CB06662311F08061BACF8F7CB8CFE6
:105260006093CC0620C0C092CD06D092CE06E092CC
:10527000CF06F092D00617C0C092D106D092D206C7
:10528000E092D306F092D4060EC070E07093D6067A
:105290006093D50608C0C092D706D092D806E09297
:1052A000D906F092DA060E94D62680E007C084E094
:1052B00005C083E003C086E001C08AE0DF91CF91A2
:1052C000FF90EF90DF90CF9008950E944B288111BE
:1052D00008C087E00E9433218FEF0E94E3260C94E0
:1052E000E2210895882321F0813021F488E0089597
:1052F00084E0089580E10895882321F0813021F42D
:1053000080E4089580E2089580E808958091030183
:1053100090E0FC01EE0FFF1FE552F94F0190F08184
:10532000E02D2081DC01AD5AB84F8C91809582230D
:10533000808308958091030190E0FC01EE0FFF1F30
:10534000E55DF84F0190F081E02D2081DC01AD5A40
:10535000B84F8C91282B20838091020190E0FC01B2
:10536000EE0FFF1FE55DF84F0190F081E02D2081E9
:10537000DC01AD5AB84F8C91282B20830C948629E0
:10538000811102C00C94862990910201813099F418
:10539000892F90E0FC01EE0FFF1FE552F94F0190BD
:1053A000F081E02D2081DC01AD5AB84F8C918095C1
:1053B0008223808311C0892F90E0FC01EE0FFF1F34
:1053C000E552F94F0190F081E02D2081DC01AD5ACA
:1053D000B84F8C91282B20838091030190E0FC0131
:1053E000EE0FFF1FE552F94F0190F081E02D208173
:1053F000DC01AD5AB84F8C91282B20830895CF93B0
:10540000DF9300D000D01F92CDB7DEB79091B105E9
:105410009230A9F04A835B836C837D8389830E94E9
:1054200022214A815B816C817D8189810F900F905F
:105430000F900F900F90DF91CF910C94C0290F9097
:105440000F900F900F900F90DF91CF910895909152
:10545000CB068091070192FF11C090E0FC01EE0F96
:10546000FF1FE552F94F0190F081E02D2081DC0112
:10547000AD5AB84F8C91282B208311C090E0FC01CD
:10548000EE0FFF1FE552F94F0190F081E02D2081D2
:10549000DC01AD5AB84F8C91809582238083809136
:1054A000B1058C70A1F0809197048093AB0480913A
:1054B00098048093AA048091BE06880F8450819539
:1054C0008093A90480916F00826080936F0008959B
:1054D00080916F008D7F80936F0080918100887F25
:1054E000816080938100109296048091C1068F3F65
:1054F00021F490910E01992349F09091B1059430D7
:1055000029F090E00E94F31891E001C090E08091B2
:10551000CB0682FF02C081E0982780910701992382
:1055200089F090E0FC01EE0FFF1FE552F94F01906A
:10553000F081E02D2081DC01AD5AB84F8C91282BF1
:105540002083089590E0FC01EE0FFF1FE552F94F14
:105550000190F081E02D2081DC01AD5AB84F8C9193
:1055600080958223808308951F920F920FB60F9229
:1055700011242F933F934F935F936F937F938F9358
:105580009F93AF93BF93CF93DF93EF93FF9380915C
:1055900096048111D2C29091AB0480910A0195FFCB
:1055A00011C090E0FC01EE0FFF1FE552F94F019092
:1055B000F081E02D2081DC01AD5AB84F8C91282B71
:1055C000208311C090E0FC01EE0FFF1FE552F94F60
:1055D0000190F081E02D2081DC01AD5AB84F8C9113
:1055E0008095822380839091AB048091090196FF7E
:1055F00011C090E0FC01EE0FFF1FE552F94F019042
:10560000F081E02D2081DC01AD5AB84F8C91282B20
:10561000208311C090E0FC01EE0FFF1FE552F94F0F
:105620000190F081E02D2081DC01AD5AB84F8C91C2
:105630008095822380839091AB048091080197FF2D
:1056400011C090E0FC01EE0FFF1FE552F94F0190F1
:10565000F081E02D2081DC01AD5AB84F8C91282BD0
:10566000208311C090E0FC01EE0FFF1FE552F94FBF
:105670000190F081E02D2081DC01AD5AB84F8C9172
:105680008095822380839091AA0480910D0192FFDE
:1056900011C090E0FC01EE0FFF1FE552F94F0190A1
:1056A000F081E02D2081DC01AD5AB84F8C91282B80
:1056B000208311C090E0FC01EE0FFF1FE552F94F6F
:1056C0000190F081E02D2081DC01AD5AB84F8C9122
:1056D0008095822380839091AA0480910C0193FF8E
:1056E00011C090E0FC01EE0FFF1FE552F94F019051
:1056F000F081E02D2081DC01AD5AB84F8C91282B30
:10570000208311C090E0FC01EE0FFF1FE552F94F1E
:105710000190F081E02D2081DC01AD5AB84F8C91D1
:105720008095822380839091AA0480910B0194FF3D
:1057300011C090E0FC01EE0FFF1FE552F94F019000
:10574000F081E02D2081DC01AD5AB84F8C91282BDF
:10575000208311C090E0FC01EE0FFF1FE552F94FCE
:105760000190F081E02D2081DC01AD5AB84F8C9181
:105770008095822380838091A90486BD82E085BDC7
:1057800081E08093960478948091BD049091BE044A
:10579000892B09F0A4C080919B0490919A049817DA
:1057A00009F492C0E0919B0486E0E89FF001112487
:1057B000E154FB4FF093BE04E093BD0483819481D8
:1057C0009093890080938800808191819093B9049F
:1057D0008093B804A2818091BA048A1771F1A093D2
:1057E000BA0481E1A89FD0011124AD51BB4FB09301
:1057F000BC04A093BB041D968D919D910D90BC910E
:10580000A02DB695A795979587958093A40490931E
:10581000A504A093A604B093A7048093A00490933A
:10582000A104A093A204B093A30480939C0490933A
:105830009D04A0939E04B0939F04C091BB04D0919B
:10584000BC0480919704988189278093AB042581BB
:1058500089819A81AB81BC81022E04C0B695A7953F
:10586000979587950A94D2F78093AC049093AD04F2
:10587000A093AE04B093AF048D819E81AF81B885B3
:10588000022E04C0B695A795979587950A94D2F7EE
:105890008093B0049093B104A093B204B093B30486
:1058A00089859A85AB85BC8504C0B695A7959795E3
:1058B00087952A95D2F78093B4049093B504A0936A
:1058C000B604B093B7040BC00E94682A9FB7F8943F
:1058D00080910F01846080930F019FBF2EC10E94B1
:1058E0005C1F1092AA048091AC049091AD04A09129
:1058F000AE04B091AF0440919C0450919D0460911E
:105900009E0470919F04840F951FA61FB71F80935C
:105910009C0490939D04A0939E04B0939F04E091F7
:10592000BB04F091BC04458556856785708948178E
:1059300059076A077B0768F524E02093AA04458588
:10594000568567857089841B950BA60BB70B8093D2
:105950009C0490939D04A0939E04B0939F04208187
:105960008091B3059091B405A091B505B091B605AD
:1059700025FF04C00197A109B10903C00196A11D2B
:10598000B11D8093B3059093B405A093B505B09372
:10599000B6058091B0049091B104A091B204B09189
:1059A000B3044091A0045091A1046091A2047091AD
:1059B000A304840F951FA61FB71F8093A004909384
:1059C000A104A093A204B093A304458556856785DE
:1059D0007089481759076A077B0778F52091AA0450
:1059E00028602093AA044585568567857089841BA5
:1059F000950BA60BB70B8093A0049093A104A093E2
:105A0000A204B093A30420818091B7059091B805BA
:105A1000A091B905B091BA0526FF04C00197A1096C
:105A2000B10903C00196A11DB11D8093B7059093E4
:105A3000B805A093B905B093BA058091B4049091CC
:105A4000B504A091B604B091B7044091A40450915C
:105A5000A5046091A6047091A704840F951FA61F4A
:105A6000B71F8093A4049093A504A093A604B093B9
:105A7000A7044585568567857089481759076A07C1
:105A80007B0778F52091AA0420612093AA0445851C
:105A9000568567857089841B950BA60BB70B809381
:105AA000A4049093A504A093A604B093A704208116
:105AB0008091BB059091BC05A091BD05B091BE053C
:105AC00027FF04C00197A109B10903C00196A11DD8
:105AD000B11D8093BB059093BC05A093BD05B09309
